{
  "contractName": "MyContract",
  "abi": [
    {
      "anonymous": false,
      "inputs": [
        {
          "indexed": true,
          "internalType": "address",
          "name": "_buyer",
          "type": "address"
        },
        {
          "indexed": false,
          "internalType": "uint256",
          "name": "_amount",
          "type": "uint256"
        }
      ],
      "name": "Purchase",
      "type": "event"
    },
    {
      "payable": true,
      "stateMutability": "payable",
      "type": "fallback"
    },
    {
      "constant": true,
      "inputs": [
        {
          "internalType": "address",
          "name": "",
          "type": "address"
        }
      ],
      "name": "balances",
      "outputs": [
        {
          "internalType": "uint256",
          "name": "",
          "type": "uint256"
        }
      ],
      "payable": false,
      "stateMutability": "view",
      "type": "function"
    },
    {
      "constant": false,
      "inputs": [
        {
          "internalType": "address payable",
          "name": "_wallet",
          "type": "address"
        }
      ],
      "name": "initialize",
      "outputs": [],
      "payable": false,
      "stateMutability": "nonpayable",
      "type": "function"
    },
    {
      "constant": false,
      "inputs": [
        {
          "internalType": "uint256",
          "name": "initialValue",
          "type": "uint256"
        }
      ],
      "name": "initialize",
      "outputs": [],
      "payable": false,
      "stateMutability": "nonpayable",
      "type": "function"
    },
    {
      "constant": false,
      "inputs": [],
      "name": "buyToken",
      "outputs": [],
      "payable": true,
      "stateMutability": "payable",
      "type": "function"
    }
  ],
  "bytecode": "0x608060405234801561001057600080fd5b50610475806100206000396000f3fe60806040526004361061003f5760003560e01c806327e235e314610049578063a4821719146100ae578063c4d66de8146100b8578063fe4b84df14610109575b610047610144565b005b34801561005557600080fd5b506100986004803603602081101561006c57600080fd5b81019080803573ffffffffffffffffffffffffffffffffffffffff16906020019092919050505061024c565b6040518082815260200191505060405180910390f35b6100b6610144565b005b3480156100c457600080fd5b50610107600480360360208110156100db57600080fd5b81019080803573ffffffffffffffffffffffffffffffffffffffff169060200190929190505050610264565b005b34801561011557600080fd5b506101426004803603602081101561012c57600080fd5b81019080803590602001909291905050506102f4565b005b6001603460003373ffffffffffffffffffffffffffffffffffffffff1673ffffffffffffffffffffffffffffffffffffffff16815260200190815260200160002060008282540192505081905550603660009054906101000a900473ffffffffffffffffffffffffffffffffffffffff1673ffffffffffffffffffffffffffffffffffffffff166108fc349081150290604051600060405180830381858888f193505050501580156101fa573d6000803e3d6000fd5b503373ffffffffffffffffffffffffffffffffffffffff167f2499a5330ab0979cc612135e7883ebc3cd5c9f7a8508f042540c34723348f63260016040518082815260200191505060405180910390a2565b60346020528060005260406000206000915090505481565b80603660006101000a81548173ffffffffffffffffffffffffffffffffffffffff021916908373ffffffffffffffffffffffffffffffffffffffff16021790555033603560006101000a81548173ffffffffffffffffffffffffffffffffffffffff021916908373ffffffffffffffffffffffffffffffffffffffff160217905550635fbb922d60378190555050565b600060019054906101000a900460ff168061031357506103126103fb565b5b8061032a57506000809054906101000a900460ff16155b61037f576040517f08c379a000000000000000000000000000000000000000000000000000000000815260040180806020018281038252602e815260200180610413602e913960400191505060405180910390fd5b60008060019054906101000a900460ff1615905080156103cf576001600060016101000a81548160ff02191690831515021790555060016000806101000a81548160ff0219169083151502179055505b8160338190555080156103f75760008060016101000a81548160ff0219169083151502179055505b5050565b6000803090506000813b905060008114925050509056fe436f6e747261637420696e7374616e63652068617320616c7265616479206265656e20696e697469616c697a6564a265627a7a72315820845a9399d0aab78bbc934161832b7fb3eaf7a019ec9e0da9ca0e92ebbc53a2d764736f6c63430005100032",
  "source": "\r\n\r\npragma solidity ^0.5.12;\r\nimport \"@openzeppelin/upgrades-core/contracts/Initializable.sol\";\r\n\r\ncontract MyContract is Initializable {\r\n\r\nuint256 value;\r\nfunction initialize(uint256 initialValue) public initializer{\r\nvalue = initialValue;\r\n}\r\n\r\n    mapping(address => uint256) public balances;\r\n\t\r\n\r\n\r\n address owner;\r\n address payable wallet;\r\n \r\n uint256 startTime;\r\n\r\n    modifier onlyWhileOpen() {\r\n        require(block.timestamp >= startTime);\r\n        _;\r\n    }\r\n\r\n    event Purchase(\r\n        address indexed _buyer,\r\n        uint256 _amount\r\n    );\r\n\r\n    function initialize(address payable _wallet) public {\r\n        wallet = _wallet;\r\n         owner = msg.sender;\r\n    startTime = 1606128173;\r\n    }\r\n\r\n    function() external payable {\r\n        buyToken();\r\n    }\r\n\r\n    function buyToken() public payable {\r\n        balances[msg.sender] += 1;\r\n        wallet.transfer(msg.value);\r\n        emit Purchase(msg.sender, 1);\r\n        \r\n    }\r\n}   ",
  "sourcePath": "C:/Users/Mbem1/OpenZepplin/contracts/MyContract.sol",
  "compiler": {
    "name": "solc",
    "version": "0.5.16+commit.9c3226ce.Emscripten.clang"
  },
  "schemaVersion": "3.3.2",
  "updatedAt": "2020-12-16T14:00:16.588Z",
  "devdoc": {
    "methods": {}
  },
  "userdoc": {
    "methods": {}
  }
}